:020000040000fa
:080000000002040000000000f2
:020000040000fa
:040008004c050000a3
:020000040000fa
:04000c00aa04000042
:020000040000fa
:04001000cc0400001c
:020000040000fa
:040014009005000053
:020000040000fa
:040018006e05000071
:020000040000fa
:04001c009807000041
:020000040000fa
:04002000ee040000ea
:020000040000fa
:040024009807000039
:020000040000fa
:040028009807000035
:020000040000fa
:04002c00dc050000ef
:020000040000fa
:04003000980700002d
:020000040000fa
:040034009807000029
:020000040000fa
:040038009807000025
:020000040000fa
:04003c009807000021
:020000040000fa
:04004000980700001d
:020000040000fa
:040044009807000019
:020000040000fa
:040048009807000015
:020000040000fa
:04004c009807000011
:020000040000fa
:04005000980700000d
:020000040000fa
:04005400640600003e
:020000040000fa
:04005800fe050000a1
:020000040000fa
:04005c009807000001
:020000040000fa
:0400600098070000fd
:020000040000fa
:0400640098070000f9
:020000040000fa
:0400680098070000f5
:020000040000fa
:04006c0098070000f1
:020000040000fa
:0400700098070000ed
:020000040000fa
:0400740098070000e9
:020000040000fa
:0400780098070000e5
:020000040000fa
:04007c0098070000e1
:020000040000fa
:0400800098070000dd
:020000040000fa
:0400840098070000d9
:020000040000fa
:0400880098070000d5
:020000040000fa
:04008c0076040000f6
:020000040000fa
:0400900098070000cd
:020000040000fa
:0400940098070000c9
:020000040000fa
:0400980098070000c5
:020000040000fa
:04009c0098070000c1
:020000040000fa
:0400a00098070000bd
:020000040000fa
:0400a40098070000b9
:020000040000fa
:0400a80098070000b5
:020000040000fa
:0400ac0098070000b1
:020000040000fa
:0400b00098070000ad
:020000040000fa
:0400b40098070000a9
:020000040000fa
:0400b80098070000a5
:020000040000fa
:0400bc0098070000a1
:020000040000fa
:0400c000980700009d
:020000040000fa
:0400c4009807000099
:020000040000fa
:0400c8009807000095
:020000040000fa
:0400cc009807000091
:020000040000fa
:0400d000980700008d
:020000040000fa
:0400d4009807000089
:020000040000fa
:0400d8009807000085
:020000040000fa
:0400dc00b405000067
:020000040000fa
:0400e000980700007d
:020000040000fa
:0400e4009807000079
:020000040000fa
:0400e8009807000075
:020000040000fa
:0400ec00f00600001a
:020000040000fa
:0400f000980700006d
:020000040000fa
:0400f4009807000069
:020000040000fa
:0400f8009807000065
:020000040000fa
:0400fc009807000061
:020000040000fa
:04010000980700005c
:020000040000fa
:040104009807000058
:020000040000fa
:040108009807000054
:020000040000fa
:04010c009807000050
:020000040000fa
:04011000980700004c
:020000040000fa
:040114009807000048
:020000040000fa
:040118009807000044
:020000040000fa
:04011c009807000040
:020000040000fa
:04012000980700003c
:020000040000fa
:040124009807000038
:020000040000fa
:040128009807000034
:020000040000fa
:04012c009807000030
:020000040000fa
:04013000980700002c
:020000040000fa
:040134009807000028
:020000040000fa
:040138009807000024
:020000040000fa
:04013c009807000020
:020000040000fa
:04014000980700001c
:020000040000fa
:040144009807000018
:020000040000fa
:040148009807000014
:020000040000fa
:04014c009807000010
:020000040000fa
:04015000980700000c
:020000040000fa
:040154009807000008
:020000040000fa
:040158009807000004
:020000040000fa
:04015c009807000000
:020000040000fa
:0401600098070000fc
:020000040000fa
:0401640098070000f8
:020000040000fa
:0401680098070000f4
:020000040000fa
:04016c0098070000f0
:020000040000fa
:0401700098070000ec
:020000040000fa
:0401740098070000e8
:020000040000fa
:0401780098070000e4
:020000040000fa
:04017c0098070000e0
:020000040000fa
:0401800098070000dc
:020000040000fa
:0401840098070000d8
:020000040000fa
:0401880098070000d4
:020000040000fa
:04018c0098070000d0
:020000040000fa
:0401900098070000cc
:020000040000fa
:0401940098070000c8
:020000040000fa
:0401980098070000c4
:020000040000fa
:04019c0098070000c0
:020000040000fa
:0401a00098070000bc
:020000040000fa
:0401a40098070000b8
:020000040000fa
:0401a80098070000b4
:020000040000fa
:0401ac0098070000b0
:020000040000fa
:0401b00098070000ac
:020000040000fa
:0401b40098070000a8
:020000040000fa
:0401b80098070000a4
:020000040000fa
:0401bc0098070000a0
:020000040000fa
:0401c000980700009c
:020000040000fa
:0401c4009807000098
:020000040000fa
:0401c8009807000094
:020000040000fa
:0401cc009807000090
:020000040000fa
:0401d000980700008c
:020000040000fa
:0401d4009807000088
:020000040000fa
:0401d8009807000084
:020000040000fa
:0401dc009807000080
:020000040000fa
:0401e000980700007c
:020000040000fa
:0401e4009807000078
:020000040000fa
:0401e8009807000074
:020000040000fa
:0401ec009807000070
:020000040000fa
:0401f000980700006c
:020000040000fa
:0401f4009807000068
:020000040000fa
:0401f8009807000064
:020000040000fa
:0401fc009807000060
:020000040000fa
:04020000980700005b
:020000040000fa
:040204009807000057
:020000040000fa
:040208009807000053
:020000040000fa
:04020c00980700004f
:020000040000fa
:04021000980700004b
:020000040000fa
:040214009807000047
:020000040000fa
:040218009807000043
:020000040000fa
:04021c00980700003f
:020000040000fa
:04022000980700003b
:020000040000fa
:040224009807000037
:020000040000fa
:040228009807000033
:020000040000fa
:04022c00980700002f
:020000040000fa
:04023000980700002b
:020000040000fa
:040234009807000027
:020000040000fa
:040238009807000023
:020000040000fa
:04023c00980700001f
:020000040000fa
:04024000980700001b
:020000040000fa
:040244009807000017
:020000040000fa
:040248009807000013
:020000040000fa
:04024c00980700000f
:020000040000fa
:04025000980700000b
:020000040000fa
:040254009807000007
:020000040000fa
:040258009807000003
:020000040000fa
:04025c0098070000ff
:020000040000fa
:0402600098070000fb
:020000040000fa
:0402640098070000f7
:020000040000fa
:0402680098070000f3
:020000040000fa
:04026c0098070000ef
:020000040000fa
:0402700098070000eb
:020000040000fa
:0402740098070000e7
:020000040000fa
:0402780098070000e3
:020000040000fa
:04027c0098070000df
:020000040000fa
:0402800098070000db
:020000040000fa
:0402840098070000d7
:020000040000fa
:0402880098070000d3
:020000040000fa
:04028c0098070000cf
:020000040000fa
:0402900098070000cb
:020000040000fa
:0402940098070000c7
:020000040000fa
:0402980098070000c3
:020000040000fa
:04029c0098070000bf
:020000040000fa
:0402a00098070000bb
:020000040000fa
:0402a40098070000b7
:020000040000fa
:0402a80098070000b3
:020000040000fa
:0402ac0098070000af
:020000040000fa
:0402b00098070000ab
:020000040000fa
:0402b40098070000a7
:020000040000fa
:0402b80098070000a3
:020000040000fa
:0402bc00980700009f
:020000040000fa
:0402c000980700009b
:020000040000fa
:0402c4009807000097
:020000040000fa
:0402c8009807000093
:020000040000fa
:0402cc00980700008f
:020000040000fa
:0402d000980700008b
:020000040000fa
:0402d4009807000087
:020000040000fa
:0402d8009807000083
:020000040000fa
:0402dc00980700007f
:020000040000fa
:0402e000980700007b
:020000040000fa
:0402e4009807000077
:020000040000fa
:0402e8009807000073
:020000040000fa
:0402ec00980700006f
:020000040000fa
:0402f000980700006b
:020000040000fa
:0402f4009807000067
:020000040000fa
:0402f8009807000063
:020000040000fa
:0402fc00980700005f
:020000040000fa
:04030000980700005a
:020000040000fa
:040304009807000056
:020000040000fa
:040308009807000052
:020000040000fa
:04030c00980700004e
:020000040000fa
:04031000980700004a
:020000040000fa
:040314009807000046
:020000040000fa
:040318009807000042
:020000040000fa
:04031c008c0700004a
:020000040000fa
:04032000980700003a
:020000040000fa
:040324009807000036
:020000040000fa
:040328009807000032
:020000040000fa
:04032c00980700002e
:020000040000fa
:04033000980700002a
:020000040000fa
:040334009807000026
:020000040000fa
:10040000cf3321000eff26000e01880000000000ff
:10041000000020000000e000020032000001200087
:100420002002880014000700c30207000000e0005b
:1004300003003a00a007230001002000020037005b
:100440000000200001002000810f70000100320038
:100450000f000700000020000000e0000200320052
:100460000000020000000000ea330200000000006b
:100470000040da000000fe00201320000000e00031
:1004800002003200002020009001880000000600d9
:10049000a1028800800478000000eb001f003700f4
:1004a000e284440054a0b4009905ba00e2844400f8
:1004b00054a0b4009906ba00e284440054a0b400e9
:1004c0000006eb00476fde00fd07b200ae018800ba
:1004d000636ce10003003a000ad801000000eb0061
:1004e0000e003700606ce10008003a00004deb00a0
:1004f0000a05e800020039003420ec000af0a000f0
:100500008b05e900f9ff3e00040037006168e10057
:10051000010032000086eb000b00070019c7ba008b
:100520001905ba000e04e00003003a000a00e000da
:10053000dbff3a0000000600fe07b200ae028800b2
:100540008a047800f5ff37000cd0a300e20f4d00bd
:100550001c003b0089027800354dba000a05e8000e
:10056000020039003420ec000af0a0008b05e900fd
:100570000f003200254dba000a05e80002003900dc
:100580003420ec000af0a0008b05e90008003200de
:100590000c00e0000600320015cdba000a05e800a4
:1005a000020039003420ec000af0a0008b05e900bd
:1005b0008984e80054a0b4000b00e000e2ff3a0098
:1005c000000006009902ba00055d78008b05e9007d
:1005d000f7ff3200c82ade00055d78008b05e900d0
:1005e000f3ff32000c00e000f1ff320019ddba0029
:1005f000eeff370052120400000000006e120400eb
:10060000000000008a12040000000000a61204008e
:1006100000000000c212040000000000de1204000e
:1006200000000000fa12040000000000980d040011
:1006300000000000ca0d0400000000001e0e0400af
:10064000000000007c0e0400000000002c120400da
:10065000000000007c11040000000000c40f040032
:10066000000000006610040000000000e01104001b
:1006700000000000f8110400000000001012040047
:10068000000000008a0e040000000000320f040089
:10069000000000009411040000000000ac110400f0
:1006a00000000000c41104000000000090100400cd
:1006b000000000005c110400000000003e12040075
:1006c000000000005a12040000000000761204002e
:1006d000000000009212040000000000ae120400ae
:1006e00000000000ca12040000000000e61204002e
:1006f0000000000002130400000000007c1e040043
:1007000000000000c8190400000000000a1a0400dc
:1007100000000000f61c040000000000c41d0400de
:1007200000000000021e040000000000841e0400ff
:10073000000000001e1f040000000000981e0400be
:1007400000000000e61e040000000000f41e04008b
:1007500000000000681e0400000000005a1f040092
:10076000000000009e2e0400000000006430040021
:1007700000000000e22f040000000000f82f040039
:1007800000000000083004000000000016300400e3
:10079000000000002230040000000000c22f04000e
:1007a00000000000d22f04000000000030300400e0
:1007b000000000005030040000000000202304006e
:1007c000000000003c230400000000005823040047
:1007d00000000000742304000000000090230400c7
:1007e00000000000ac23040000000000d61f04003d
:1007f0000000000038200400000000006020040019
:10080000000000008a20040000000000b82004005e
:1008100000000000ce2004000000000000210400c1
:100820000000000036210400000000004021040008
:10083000000000004a2104000000000074210400b0
:10084000000000008c21040000000000a42104002e
:1008500000000000be21040000000000de210400b2
:10086000000000008422040000000000fe220400ba
:10087000000000000c2304000000000028230400f6
:100880000000000044230400000000006023040076
:10089000000000007c2304000000000098230400f6
:1008a000000000008c13040000000000d6130400b8
:1008b00000000000fa16040000000000d415040037
:1008c0000000000026180400000000005a18040070
:1008d000000000008e18040000000000e623040061
:1008e0000000000026310400000000003600f8007f
:1008f000809fbe00829fbe00849fbe00869fbe0078
:100900000000fa00e02e80004e00de006140600032
:10091000e14f500006003a00908180000000e000a6
:10092000020032009081800000000100ddc5a900b6
:100930000328a900000000000080fa004f03be0059
:100940004f02be004f01be004f00be003600f9004e
:10095000004006003600f800809fbe00829fbe0067
:10096000849fbe00869fbe000000fa00c068a900f8
:100970002000200087170700000000000080fa0018
:100980004f03be004f02be004f01be004f00be002d
:100990003600f900004006003600f800809fbe00d7
:1009a000829fbe00849fbe00869fbe000000fa00aa
:1009b000c608a9007000200076170700000000009c
:1009c0000080fa004f03be004f02be004f01be0080
:1009d0004f00be003600f900004006003600f80067
:1009e000809fbe00829fbe00849fbe00869fbe0087
:1009f0000000fa00204680004400de0061406000f4
:100a0000e14f500003003a00c488a900a000200074
:100a100060170700204680004500de00614060004e
:100a2000e14f500003003a00c4a8a9009000200044
:100a300058170700204680004800de006140600033
:100a4000e14f500003003a00c508a900c000200093
:100a500050170700204680004900de00614060001a
:100a6000e14f500003003a00c528a900d000200043
:100a70004817070020468000004078006140600071
:100a8000e14f500003003a00c408a900b000200064
:100a900040170700ffff37003600f800809fbe00b8
:100aa000829fbe00849fbe00869fbe000000fa00a9
:100ab000c028a9000000eb00361707000000000066
:100ac0000080fa004f03be004f02be004f01be007f
:100ad0004f00be003600f900004006003600f80066
:100ae000809fbe00829fbe00849fbe00869fbe0086
:100af0000000fa00c088a900300020002517070078
:100b0000000000000080fa004f03be004f02be004c
:100b10004f01be004f00be003600f9000040060045
:100b20003600f800809fbe00829fbe00849fbe00fa
:100b3000869fbe000000fa001e170700c048a900eb
:100b40001000200013170700000000000080fa00ca
:100b50004f03be004f02be004f01be004f00be005b
:100b60003600f900004006003600f800809fbe0005
:100b7000829fbe00849fbe00869fbe000000fa00d8
:100b8000508380000000e0000200320050838000ab
:100b90000000010005a8a900000000000080fa0084
:100ba0004f03be004f02be004f01be004f00be000b
:100bb0003600f900004006003600f800809fbe00b5
:100bc000829fbe00849fbe00869fbe000000fa0088
:100bd00010848000000001000028a900000000002f
:100be0000080fa004f03be004f02be004f01be005e
:100bf0004f00be003600f900004006003600f80045
:100c0000809fbe00829fbe00849fbe00869fbe0064
:100c10000000fa004180800030808000808f50000a
:100c20001a003a00708080000000e00002003200ec
:100c300070808000000001002188a90010c0b3006e
:100c400084f0b70018003700408080001040780022
:100c50000080fb0040128800408080000000e80017
:100c6000408088004180800090312100808f5000ba
:100c700002003a000031210040808800418080005d
:100c800030808000808f500006003200f01180001c
:100c90004400de0061406000e14f5000eaff3a008e
:100ca0000100370000000000000000000080fa0092
:100cb0004f03be004f02be004f01be004f00be00fa
:100cc0003600f900004006003600f800809fbe00a4
:100cd000829fbe00849fbe00869fbe000400fa0073
:100ce0000000eb00000f78000000eb0010079800f8
:100cf0000168a900280037002112800010808000c0
:100d0000814078000148780080002000000f7800c2
:100d100011808000110798000e80e8008e80e800a6
:100d20001108e80090007800110798009031210028
:100d30009e00400010808000808f5000080032002c
:100d4000208080009e009000808f500004003200c0
:100d5000108080000000e800108088000e0037003e
:100d6000903121009e00400010808000808f500054
:100d700007003a002180800090312100808f5000d0
:100d800003003200903121001080880002003700fb
:100d900010c0b3000af0b700f01180000000d100cd
:100da00061406000e14f5000d3ff3a006080800056
:100db0000000e000020032006080800000000100be
:100dc000000000000080fa004f03be004f02be008a
:100dd0004f01be004f00be003600f9000040060083
:100de0003600f800809fbe00829fbe00849fbe0038
:100df000869fbe000000fa00e01180004500de0082
:100e000061406000e14f500004003a000080800023
:100e10000040a000008088003ca2a900e0118000f2
:100e20000040780061406000e14f500009003a0046
:100e3000008080000030a00000808800808080005a
:100e40000000e0000200320080808000000001000d
:100e50003c02a900e01180000000d1006140600068
:100e6000e14f500009003a00008080000020a000ff
:100e700000808800a08080000000e00002003200b6
:100e8000a0808000000001003c22a900e011800049
:100e90004600de0061406000e14f500008003a006b
:100ea000008080000010a00000808800b0808000da
:100eb0000000e00002003200b0808000000001006d
:100ec000e01180004300de0061406000e14f50000f
:100ed00008003a00008080000000a0000080880028
:100ee000908080000000e0000200320090808000ce
:100ef000000001000628a900000000000080fa00a0
:100f00004f03be004f02be004f01be004f00be00a7
:100f10003600f900004006000000fa005cc2a9009b
:100f200017a8a900000000000080fa000040060099
:100f30000040da000000fe00000005006022b8005a
:100f4000060220000000d0008180d2000482d2007e
:100f50008582d2000000a0000202520083825a0063
:100f6000030031000202420083824a000000a10017
:100f70000603e900f3ff3a00000006008001e900e3
:100f800002814000828f500001003a0000000600fc
:100f9000b1697800fbff3700889fbe008a9fbe00c2
:100fa0000200e0004e003200014278000148780063
:100fb00082014000f1f99f00e20f51004800360025
:100fc0001140980021409800e1f99f00d1f99f005d
:100fd000e60f51004200360031409800c1f99f00f1
:100fe000e80f51003e0036008001ea00e381610015
:100ff0008300400003015100c3ff2f000301610083
:101000000482fb008002eb001310200083a3b900d0
:101010000322b800850243008488be00828140001c
:10102000e4b99f00f5b99f00e80f51002c0036008d
:10103000a4009800b5009800c4009800d50098005e
:10104000a4b99f00b5b99f00c4b99f00d5b99f004e
:10105000f80f510022003600e4009800f5009800d7
:101060008408980095089800a4089800b50898008e
:10107000c4089800d5089800a4b19f00b5b19f009e
:10108000c4b19f00d5b19f00e4b19f00f5b19f00ae
:1010900084b99f0095b99f00e4816000f881410008
:1010a00083804000030151006033b8000605be0094
:1010b0000404be000805be006044b80004027400c9
:1010c00085827400060375008783750081017800ae
:1010d0000284400003045400ff0f540003003e004c
:1010e0004f05be004f04be00000006008499be00fc
:1010f0008691be00c4019800d5019800e6019800d1
:10110000f70198008409980095099800a6099800ad
:10111000b7099800c4099800d5099800e609980015
:0c112000f70998000302b000e9ff370057
:020000040000fa
:10112c0046690000726d0000776100007265000076
:10113c002056000065720000736900006f6e00009d
:10114c00203100002e3000002e3000002e30000028
:10115c002e2e00002e2e00002e2e00002e2e000013
:10116c002e2e00002e2e00002e2e00002e2e000003
:10117c002e2e00002e2e00002e2e00002e2e0000f3
:10118c002e2e00002e2e00002e2e00002e2e0000e3
:10119c002e2e00002e2e00002e2e00002e210000e0
:1011ac00004c00006f670000204d000065730000cc
:1011bc00736100006765000020460000726f00003c
:1011cc006d200000507200006f7400006f6300000f
:1011dc006f6c0000204900004420000030780000b3
:1011ec0032300000362e00002e2e00002e2e000075
:1011fc002e2e00002e2e00002e2e00002e2e000073
:10120c002e2e00002e2e00002e2e00002e2e000062
:10121c002e2e00002e2e00002e2e00002e2e000052
:10122c000d000000980d0000ca0d00001e0e0000fd
:10123c007c0e00002c1200007c110000c40f00007a
:10124c0066100000e0110000f81100001012000000
:10125c008a0e0000320f000094110000ac11000047
:10126c00c4110000901000005c1100003e12000040
:10127c005a1200007612000092120000ae1200000a
:10128c00ca120000e6120000021300000001000068
:10129c00020300000405000006070000080c000013
:1012ac00101400001820000030400000d61f000071
:1012bc0038200000602000008a200000b8200000c8
:1012cc00ce2000000021000036210000402100004b
:1012dc0000000000000000004a2100007421000002
:1012ec008c210000a4210000be210000de210000a2
:1012fc0084220000fe2200000c23000028230000a2
:10130c0044230000602300007c230000982300008d
:10131c00c81900000a1a0000f61c0000c41d0000c9
:10132c00021e0000841e00001e1f0000981e0000fc
:10133c00e61e0000f41e0000681e00005a1f00008c
:10134c00e22f0000f82f00000830000016300000db
:10135c0022300000c22f0000d22f000030300000dd
:10136c0050300000000000008c130000d613000069
:10137c00fa160000d4150000261800005a180000b8
:04138c008e180000b7
:020000040000fa
:101390000200fa00000f7800c09428001e004000f0
:1013a000104078000080fa00000006000400fa00f7
:1013b000004f7800110798001e80fb000000e0003d
:1013c00003003200e10f50000b0032001400370020
:1013d0001e00900081612000110098001e00900006
:1013e00001c4b300014878001e00900011c0b30092
:1013f00011409800140037001e0090004162200048
:10140000110098001e00900001c4b300014878004c
:101410001e00900011c0b300114098000a00370070
:101420001e0090008000eb00110098001e0090004c
:101430008040eb00014878001e0090008040eb00e7
:101440001140980000000000000000000080fa0039
:10145000000006000200fa000040eb00004f780098
:10146000090037001e80fb00c200dd00c00721001c
:10147000008040008040eb00014878001e4078006a
:101480000040e800004f78001e4078000004e000b3
:10149000f4ff3200000000000080fa0000000600a7
:1014a0000400fa0020479800d083800000407800b4
:1014b000ae40900080cf500003003a000040eb00a7
:1014c000004f78000f0037000040eb00004f78001d
:1014d000030037001e4078000040e800004f78000d
:1014e0001e80fb00c200dd00a0072100008040003c
:1014f0001000780000407800ae40900080cf50008f
:10150000f4ff3a001e4078000080fa000000060058
:101510000200fa00000f78001e007800e10f500072
:1015200002003a002066a900010037000000000018
:10153000000000000080fa00000006000200fa002f
:10154000004f78001e80fb00e10f500002003a00bf
:101550001d06a80001003700000000000000000088
:101560000080fa00000006000400fa00100798004e
:101570001e009000e10f500006003a00003180008c
:10158000c8800a00000000000080fb00000f780007
:10159000030037000000eb00000f7800000000009f
:1015a0001e0078000080fa00000006000200fa0029
:1015b000000f78001e0078000000e00005003a00ef
:1015c00081308000003020000100700080308800f1
:1015d0000100370000000000000000000080fa0059
:1015e000000006000a00fa00889fbe00300798003d
:1015f000410798000040eb00004f78003e0090004b
:1016000090007800110798003e00900010019000b3
:10161000220798006600470041002000108040002b
:1016200010007800004078006f406000ce0090000d
:101630006f4060004200dd00c141900032ccb30039
:1016400002c1610000407100c04098006600470080
:101650004200200010004100100078004400de002d
:101660000040780061406000ce0090006140600062
:10167000414190000204a10000407100c040980068
:1016800066004700410020001080400010007800f4
:101690004500de000040780061406000ce00900010
:1016a0006140600000404000414190000214a100f0
:1016b00000407100c04098006600470042002000d2
:1016c00010004100100078004600de000040780065
:1016d00061406000ce0090004700dd004141900075
:1016e0000274a10000407100c040980066004700ed
:1016f0004100200010804000100078004700de000c
:101700000040780061406000ce00900061406000c1
:101710004600dd00414190000264a10000407100dc
:10172000c04098004e009000404090006140600032
:101730000004e0000a003a001e0090008000eb0068
:1017400080017800f27f200002816100e08060006b
:101750004e00900002087800110098001d0037002c
:101760001e0090008000eb00c200dd0000002000a1
:101770006004600081007800c0ff21008084600068
:101780002e0090006101b8004518dd00cb10de008e
:10179000810070004510dd008001780002fe2f00fe
:1017a00002836100e3836000060174008781740096
:1017b0001e0090004b00de008000eb007f02600006
:1017c000e082600004017100858171004e0090008c
:1017d0000288be004e0090002000900052800a0057
:1017e000000000000080fb00e9fe0700004f7800c9
:1017f000020420008000eb00002b2100e6fd070022
:101800001e80fb00e600470082002000910041009e
:1018100000017800002b2100d8fd07004e00900049
:10182000012b210031009800000000004f04be0091
:101830000080fa00000006000600fa001007980079
:10184000210798000040eb00004f78002e00900028
:1018500040409000614060000004e00008003a0051
:101860002e0090001000780080007800f07f2000ab
:10187000808060001e009000010878001900370089
:101880002e0090001000be004208de000100200083
:1018900080007800f07f2000808060002e009000a3
:1018a000100078004b00dd00810070001e009000e9
:1018b000010878002e0090001000be004b09dd00ea
:1018c0004500de0000007100c508de000001780060
:1018d0000e80e8001080e800f1ff21008100610027
:1018e000010878002e0090002000900052800a002d
:1018f000000000000080fb00ae009000a1009000fe
:10190000e1c060008180fb00c408dd00f080600061
:1019100000807000ae009000a10090008100d10016
:10192000e1c060008180fb00c508dd000101780096
:10193000010220008100610000807000ae00900074
:10194000a1009000c708de00e1c060008180fb00bc
:10195000c608dd000101780001042000810061005b
:1019600000807000ae009000a1009000c608de006c
:10197000e1c060008180fb00c708dd000101780044
:10198000f10f2000010161008e80e800430020007b
:101990009180410000007100800878002e009000c6
:1019a00040409000624060000004e00012003a00f5
:1019b0002e0090002000900052800a0000000000dd
:1019c0000080fb0072fe0700004f78001e80fb00c5
:1019d000ae009000310290008e80e800820020006e
:1019e0009101410000017800840078000300780034
:1019f00062fd0700090037000e80e8004300200068
:101a000010804100900078000e80e8004200200025
:101a1000100041000150a000010878000000000003
:101a20000080fa00000006000000fa0000042e000a
:101a300090308800004820008030880000000000be
:101a40000080fa00000006000000fa0000002e00ee
:101a5000f030880000402000e030880000000000e6
:101a60000080fa00000006000000fa0080338000c9
:101a700040400a0000010000803388002020200040
:101a8000003488008226ef00f07f20002034880098
:101a9000000024003034880070e6a8000000000038
:101aa0000080fa00000006000000fa00e0012000bb
:101ab000302e880070702000202e880060002000ea
:101ac000502e880010102000402e8800200020009a
:101ad000702e880000702000602e8800000000003a
:101ae0000080fa00000006000000fa002025210016
:101af00062020700e02621006e020700a0282100f4
:101b00007a020700602a210086020700202c2100ab
:101b100092020700e02d21009e020700a02f210065
:101b2000aa020700000000000080fa000000060082
:101b30000000fa00c1e5a80000492000102e88002e
:101b4000400020003d0007000000e0000e003a00c9
:101b5000002221006030880000762800002e8800d6
:101b6000c265a900c285a800cfff0700aeff07002d
:101b7000b5ff0700bcff0700dbff070035fe0700cd
:101b80000000eb002d000700000000000080fa00bc
:101b9000000006000000fa004000200027000700b7
:101ba0000000e00021003a0000762000002e8800ae
:101bb00080492000102e8800e0032000302e88008d
:101bc000f0f02000202e8800e0002000502e880039
:101bd00030302000402e880020002000702e880029
:101be00000002100602e8800000620009030880050
:101bf000004820008030880000062000f030880077
:101c000000402000e03088008033800040400a001f
:101c100000000000803388008026ef008226ef005d
:101c20008426ef008626ef0070e6a900c1e5a90032
:101c3000000000000080fa00000006000400fa0026
:101c4000100798000000eb00000f78002a00070042
:101c5000e40f5000060032001e009000e10f50001b
:101c6000030032001e009000e40f50001d003a00f7
:101c70001e00900000407800674060000080fb007c
:101c8000670060004800dd00122e8000f18f2f00f9
:101c90008100610001007000102e880009003700eb
:101ca000e02e80004c00de0061406000e14f5000fb
:101cb00004003a0020002000000f7800000000001f
:101cc0000a003700102e800075800a000000000016
:101cd0000080fb009e009000808f5000f0ff3a00d3
:101ce0000200370010002000000f78001e0078006e
:101cf0000080fa00000006000000fa00102e8000ac
:101d000075800a00000000000080fb000080fa00df
:101d1000000006000a00fa00400798000040eb00af
:101d2000104798000040eb00004f78004500370056
:101d30001e80fb00c200dd00a007210000804000e3
:101d40001000780020479800640047008000780069
:101d50002e40900095fd07000e80e8001080fb00eb
:101d60005501070030479800630047001080fb00d2
:101d7000610060000000e0002f0032003e00900093
:101d8000100078000000e000320032003e009000b9
:101d900010007800ce00900012fe07002e40900048
:101da000e6fd07001e80fb00c200dd000181e800a7
:101db000a107210081004100914078000141e80025
:101dc000c200dd00c007210000804000024878000a
:101dd0001e80fb004200dd008080e800a00721009b
:101de00000804000904078005e40900080cf50001e
:101df000060039001e80fb00c200dd00c007210084
:101e0000008040008040eb000148780063004700fc
:101e10001080fb00680060000000e000030032005a
:101e20000e80e8001080fb00b9fd070010c0b30071
:101e300010479800070037001e4078000040e80077
:101e4000004f78001e4078000004e000b8ff320028
:101e500001003700000000001e4090000080fa00e2
:101e6000000006000c00fa00400798005107980097
:101e70000040eb00004f78004e00900000407800da
:101e8000e400470049fd07004e0090000a010700ea
:101e9000104798004e0090000040780080fd070039
:101ea000204798000e00e8001080fb0061006000f1
:101eb0000000e000310032003e0090001000780089
:101ec0000000e0002d0032003e009000100078007d
:101ed000de009000c3fd07004e0090000040780037
:101ee00096fd07000e80e8001080fb00c200dd00b8
:101ef0000181e800a10721008100410091407800a4
:101f00000141e800c200dd00c00721000080400060
:101f1000024878000e80e8001080fb004200dd00df
:101f20008080e800a00721000080400090407800f9
:101f30005e40900080cf5000070039000e80e8001e
:101f40001080fb00c200dd00c007210000804000bf
:101f50008040eb00014878000e00e8001080fb0094
:101f6000680060000000e000020032004e009000b7
:101f700067fd070010c0b300004f78001e407800d6
:101f80000080fa00000006000c00fa0040079800ec
:101f9000510798004e00900000407800e400470090
:101fa00002fd07000000eb00000f780052ff070061
:101fb000100798005e009000c040900000c8b30079
:101fc00000c060000004e0000b003200002e800022
:101fd0004c00de0061406000e14f50000300320021
:101fe0001e009000e60f500003003a001e0078002b
:101ff0000010a000000f78001e009000e60f5000b7
:10200000050032005e009000404090000044b200a5
:102010000004e00009003a005e00900020009000fb
:1020200052800a0000000000e84f50000300360014
:102030001e0078000000a000000f78005e009000f5
:102040002000900052800a00000000000080fb0089
:10205000cffc0700ce409000814f500003003600b7
:102060001e0078000000a000000f78001e0078001d
:102070000000e00012003a004e009000130007003c
:10208000e10f50000b003a003e0090001000780075
:102090000000e0000a0032003e00900010007800ce
:1020a000de009000e4fd07004e0090003ffd0700b9
:1020b000030037001e0078003000b300000f7800e6
:1020c0001e0078000080fa00000006000400fa00fc
:1020d000100798001e0090000000e0000a003a007f
:1020e000a03080006100600000f0a7000000ea005e
:1020f0000000ea004f00de00004078000080fb0096
:10210000000f7800030037000000eb00000f78009c
:10211000000000001e0078000080fa0000000600a9
:102120000c00fa000040eb00304798000040eb0044
:10213000004f78000040eb00104798000040eb0093
:10214000204798000040eb00004f78005400370013
:102150001e80fb00c200dd00a007210000804000bf
:102160001000780030479800680047008000780031
:102170003e4090008dfc0700630047001080fb008c
:102180004d00070040479800640047001080fb00a6
:10219000610060000000e0003e0032006400470083
:1021a0001080fb00680060000000e00003003200c7
:1021b0009e489000114798003200370063004700a6
:1021c0001080fb00e8fc0700300798001e80fb0031
:1021d0004200dd008080e800a00721000080400070
:1021e000104078000080fb00be009000808f5000ff
:1021f0000d0031009e4890003e00900000407800a5
:1022000080c040001e80fb004200dd000081e8002d
:10221000a0072100000041001040780000c05000dd
:1022200010479800170037001e80fb004200dd00b9
:102230008080e800a0072100008040001040780066
:102240000080fb00be009000808f50000b00360025
:102250003e009000804078001e80fb004200dd00c0
:102260000081e800a0072100000041001040780034
:1022700000c0500010479800020037009e489000b0
:1022800011479800ae4090000e00e80010c04000da
:10229000204798001e4078000040e800004f78007a
:1022a0001e4078000004e000a9ff32002e4090009c
:1022b0000080fa00000006000400fa0010079800f1
:1022c0001e009000e10f500005003a000031800030
:1022d0000040780069406000004f7800030037003c
:1022e0000040eb00004f7800000000001e40780026
:1022f0000080fa00000006000000fa00b02f800005
:102300004500de00614060000080fb0000f0a70097
:102310000000ea000000ea004f00de000040780004
:102320000080fa00000006000000fa00b02f8000d4
:102330004300de00614060000080fb0000f0a70069
:102340000000ea000000ea004f00de0000407800d4
:102350000080fa00000006000000fa00b02f8000a4
:102360000000d100614060000080fb0000f0a70089
:102370000000ea000000ea004f00de0000407800a4
:102380000080fa00000006000200fa000040eb00a6
:10239000004f7800f4c5bf000004e00005003200e3
:1023a000f4c5bf000004e0000200350010c0b30017
:1023b000004f78001e4078000080fa000000060000
:1023c0000000fa00b02f80004400de006140600091
:1023d0000080fb0000f0a7000000ea000000ea0017
:1023e0004f00de00004078000080fa000000060088
:1023f0000000fa00b02f80004200de006140600063
:102400000080fb0000f0a7000000ea000000ea00e6
:102410004f00de00004078000080fa000000060057
:102420000200fa000040eb00004f7800f5c5bf0045
:102430000004e00005003200f5c5bf000004e00024
:102440000200350010c0b300004f78001e40780035
:102450000080fa00000006000000fa00ddc5a900b7
:10246000dfc5a8002328a80010002000f3fd070006
:10247000000000000080fa00000006000200fa00e0
:10248000000f78001e0078000000e000020032001b
:102490009e00780081818800000000000080fa0022
:1024a000000006000000fa00000000000080fa00b2
:1024b000000006000200fa00000f78001e007800fd
:1024c0000000e000020032009e0078009181880048
:1024d000000000000080fa00000006000000fa0082
:1024e000000000000080fa00000006000200fa0070
:1024f000000f78001e0078000000e00002003200ab
:102500009e007800a1818800000000000080fa0091
:10251000000006000000fa00000000000080fa0041
:10252000000006000200fa00000f78001e0078008c
:102530000000e000020032009e007800b1818800b7
:10254000000000000080fa00000006000000fa0011
:10255000000000000080fa00000006000200fa00ff
:10256000000f78001e0078000000e000020032003a
:102570009e007800c1818800000000000080fa0001
:10258000000006000000fa00000000000080fa00d1
:10259000000006000200fa00000f78001e0078001c
:1025a0000000e000020032009e007800d181880027
:1025b000000000000080fa00000006000000fa00a1
:1025c000000000000080fa00000006000200fa008f
:1025d000000f78001e0078000000e00002003200ca
:1025e0009e007800e1818800000000000080fa0071
:1025f000000006000000fa00000000000080fa0061
:10260000000006000000fa00e02e80004f00de000f
:1026100000407800e14f500006003a0080818000c1
:102620000000e00002003200808180000000010014
:10263000dde5a900e02e80004d00de006140600075
:10264000e14f500006003a00a08180000000e00049
:1026500002003200a081800000000100dda5a90079
:10266000e02e80004300de0061406000e14f50003a
:1026700006003a00b08180000000e0000200320055
:10268000b081800000000100dc65a900e02e800020
:102690004c00de0061406000e14f500006003a004f
:1026a000c08180000000e00002003200c081800094
:1026b00000000100dd85a900e02e80004a00de0058
:1026c00061406000e14f500005003a00d081800079
:1026d0000000e00002003200d08180000000010014
:1026e000003180004300de0061406000e14f500097
:1026f00006003a00e08180000000e00002003200a5
:10270000e0818000000001002066a90000000000b8
:102710000080fa00000006000600fa00000f7800b2
:1027200011079800220798001e0078001000900002
:10273000708b88000000eb00808b88001e00780002
:102740001000780080407800c016210011409800e9
:102750001e00780050009000d08b88000000eb0035
:10276000008c88001e00900010009000608e880091
:102770000000eb00708e88001e00900010007800b2
:1027800080407800a01c2100114098001e0090009d
:1027900050009000c08e88005070ef005170ef0024
:1027a000000000000080fa00000006000200fa00ad
:1027b0006f060700614068000004e0000d00320071
:1027c000908280000000e800908288009182800062
:1027d000f0702200808f5000040036005230ef006d
:1027e000c01721008040eb000148780010c0b30002
:1027f000eb0037005230ef0031060700004f780041
:10280000c0172100104078000080fb00e40f50004a
:102810007a003200e40f50000c003c00e10f500041
:102820002d003200e10f500003003c000000e000ea
:102830000f003200d9003700e20f50003d00320097
:10284000e30f500053003200d4003700e60f500071
:10285000a1003200e60f500081003500e70f500064
:10286000a5003200e80f5000ac003200cb0037006a
:1028700050c5b3009e40780080cf500014003a004d
:10288000c017210011c0b300014878000000eb0020
:10289000008c8800018c8000c017210001004000de
:1028a000680040001e487800a1828000a01d210021
:1028b000010040001e487800a08280000000e8006f
:1028c000a0828800008c80000000e800008c880056
:1028d00020c0b300b20037001e80fb004800dd00be
:1028e000f08b8800c017210021c0b3000148780098
:1028f000018c8000c01721000100400068004000ea
:102900001e487800a1828000a01d21000100400027
:102910001e487800a08280000000e800a0828800a5
:10292000008c80000000e800008c880020c0b3000c
:102930009b003700f18b80001e80fb0001007000bf
:10294000f08b8800c017210031c0b3000148780027
:10295000018c8000c0172100010040006800400089
:102960001e487800a1828000a01d210001004000c7
:102970001e487800a08280000000e800a082880045
:10298000008c80000000e800008c880020c0b300ac
:1029900083003700018c8000c01721000100400037
:1029a000680040001e487800a1828000a01d210020
:1029b000010040001e487800a08280000000e8006e
:1029c000a08288001e4078000074a100004f7800ab
:1029d000c01721008040eb0011409800c017210073
:1029e00041c0b30001487800008c80000000e8007e
:1029f000008c880020c0b30069003700018c800083
:102a0000c017210001004000680040001e48780007
:102a1000c0172100904090001e40780080c07000d8
:102a2000c017210011409800a1828000a01d210044
:102a3000010040001e487800a08280000000e800ed
:102a4000a0828800c017210051c0b300014878005f
:102a50000000eb00008c880020c0b300500037005d
:102a6000018c800040042000808f50000f003e0049
:102a7000018c8000c0172100010040006d00400063
:102a80001e487800008c80000000e800008c880060
:102a9000a1828000a01d2100010040001e48780096
:102aa000a08280000000e800a0828800018c8000e5
:102ab000c0172100104090000080fb00808f500064
:102ac00003003900c017210061c0b300014878003d
:102ad00020c0b300320037001e80fb004800dd003c
:102ae000b0828800c017210071c0b300014878008f
:102af00020c0b3002a0037001e80fb00b182800096
:102b000000807000b0828800c017210081c0b3002f
:102b10000148780020c0b300210037001e40780033
:102b2000ed4f500022ff3a00c017210010409000e6
:102b30000080fb006500400080007800a01d21009f
:102b40008c0107008000eb006082880071828800a1
:102b5000b08280008000eb0062828000738280007f
:102b6000820f5000838f580009003a005430ef0064
:102b70005630ef004c30ef004e30ef00c017210010
:102b800091c0b300014878000040eb00040037001a
:102b90005430ef0030c0b3000100370004ff3700ad
:102ba0000080fa00000006000200fa0050d0bf00ca
:102bb0000004e0000200320040c0b3008b00370088
:102bc000a01c2100104078000080fb00e20f5000a4
:102bd0005a003200e20f500005003c000000e00007
:102be00008003200e10f50003a0032007f00370049
:102bf000e30f500056003200e40f50007600320020
:102c00007a003700a01c210051c5b300014898008c
:102c1000608e80004800de0080407800a01c21000b
:102c200011489800608e800080407800a01c210030
:102c300021489800a01c2100104090000080fb005b
:102c40004880de0080407800a01c210031489800b8
:102c5000a01c210090409000a01c21004148980039
:102c60000000eb00708e8800a01c210011c0b30092
:102c70000148780010c0b30051f0b70030c0b30075
:102c80005a003700718e8000a01c2100e8804000af
:102c900001004000104f78001e4078001d0507001d
:102ca000708e80000000e800708e8800708e8000ba
:102cb000e40f5000070036000000eb00708e880023
:102cc000a01c210021c0b3000148780030c0b3002f
:102cd00046003700310507000004e000e9ff3a0034
:102ce00030c0b30041003700c18e8000708e80007c
:102cf000008040001040780006050700708e8000bc
:102d00000000e800708e8800718e8000a01c2100f9
:102d1000104090000080fb00808f500007003900b9
:102d2000a01c210031c0b300014878000000eb0076
:102d3000708e880030c0b3002c00370017050700e4
:102d40000004e000e8ff3a0030c0b300270037007d
:102d5000a01c21008040eb0001489800a01c21002d
:102d60008040eb0011489800a01c2100d1c0b300a6
:102d700021489800a01c210041c0b3000148780000
:102d800030c0b30019003700718e8000a01c2100f4
:102d9000e88040000100400010407800dd0407009a
:102da000708e80000000e800708e8800708e8000b9
:102db000e20f500008003600a01c21008040eb000c
:102dc000014878000000eb00708e88005170ef0021
:102dd0000040eb0005003700f00407000004e000ad
:102de000e9ff3a0030c0b300000037000080fa006d
:102df000000006000200fa0051d0bf000004e0000d
:102e00000200320040c0b3008e003700c01621001f
:102e1000104078000080fb00e20f50005d0032009f
:102e2000e20f500005003c000000e0000800320006
:102e3000e10f50003d00320082003700e30f5000e8
:102e400059003200e40f5000790032007d00370055
:102e5000c016210051c5b30001489800708b800056
:102e60004800de0080407800c0162100114898001c
:102e7000708b800080407800c016210021489800a7
:102e8000c0162100104090000080fb004880de004a
:102e900080407800c016210031489800c0162100fb
:102ea00090409000c0162100414898000000eb00bf
:102eb000808b8800c016210011c0b3000148780043
:102ec00010c0b30050f0b70030c0b3005d00370051
:102ed000818b8000c0162100e88040000100400086
:102ee000104078000080fb00000f78001e00780082
:102ef0000040780087040700808b80000000e80015
:102f0000808b8800808b8000e40f50000700360023
:102f10000000eb00808b8800c016210021c0b300a8
:102f20000148780030c0b300460037009b0407001a
:102f30000004e000e6ff3a0030c0b3004100370073
:102f4000d18b8000808b8000008040001040780092
:102f500070040700808b80000000e800808b8800f0
:102f6000818b8000c0162100104090000080fb0083
:102f7000808f500007003900c016210031c0b30017
:102f8000014878000000eb00808b880030c0b3005f
:102f90002c003700810407000004e000e8ff3a003d
:102fa00030c0b30027003700c01621008040eb007e
:102fb00001489800c01621008040eb00114898009d
:102fc000c0162100d1c0b30021489800c0162100ce
:102fd00041c0b3000148780030c0b3001900370089
:102fe000818b8000c0162100e88040000100400075
:102ff0001040780047040700808b80000000e80044
:10300000808b8800808b8000e20f50000800360023
:10301000c01621008040eb00014878000000eb0062
:10302000808b88005070ef000040eb0005003700f7
:103030005a0407000004e000e9ff3a0030c0b30082
:10304000000037000080fa00000006000200fa00cd
:10305000000f78001e007800300090000000e000b3
:1030600009003a001e00780010009000708b880064
:103070001e0078001000780080407800c016210003
:1030800011409800080037001e00780010009000e2
:10309000608e88001e007800100078008040780064
:1030a000a01c210011409800000000000080fa00e0
:1030b000000006000200fa00000f78001e007800f1
:1030c000300090000000e00009003a001e00780087
:1030d00050009000d08b88001e007800100078000f
:1030e00080407800c0162100114098000800370089
:1030f0001e00780050009000c08e88001e007800ee
:103100001000780080407800c0162100114098001f
:10311000000000000080fa00000006000200fa0033
:10312000000f78001e007800400090000000e000d2
:103130000d003a00f08b80008000eb001e0178004b
:1031400010019800210198001e00780091182100bc
:1031500051009800c0172100104090008080fb00b3
:103160001e00780001087800000000000080fa00ce
:10317000000006009200fa0070879800018f980006
:103180000e8890000040780061406000404f980039
:103190000000eb00000f78006000b80030079800d6
:1031a000410798000000eb00500798004e4890003f
:1031b0000004e000040032000e8890000000a1002e
:1031c000000f780003003700010920008e804000c6
:1031d000110f78000000eb00100798000000eb00d2
:1031e000200798001f0037000e80e8009000e800dc
:1031f000e00820000e0040001080400010407800e1
:103200000080fb00c800dd00e00820000e00400048
:103210000e81e80090017800128041001040780093
:103220000080fb0001007000800078002e009000fc
:10323000000040006e004000013778000e80e8007a
:103240008e80e8001188e8001002780014079800ca
:1032500064004700e40047001108e800900278008d
:10326000250798001e0090009e0f5000deff3900d9
:103270001e0078008000eb006e0247000001be00d7
:103280000400780040020700090037000903070026
:1032900066014700100020000100200032024000bb
:1032a000a28248000400be00300798004107980041
:1032b00095020700614068000004e000070032004a
:1032c0003e019000ce019000f07c20000100200023
:1032d000800f5100818f5900ecff3600bb020700c0
:1032e000500798004e4890000004e0002300320090
:1032f000000920000e0040009000e900e0082000d6
:103300000e00400010804000104078000080fb005c
:10331000de00900000806800500798000000eb007d
:1033200010079800120037005e00900061006000f6
:103330000000e000060032005e0090008000d10036
:1033400010002a0000806800500798000300370032
:103350005e0090000000d100500798000e80e80049
:103360008e80e8001108e8009002780015079800a8
:103370001e009000e70f5000ebff3600bc20ef006e
:10338000be20ef005e0090000080fa000000060002
:103390000000fa00b020ef00b220ef00b620ef00ee
:1033a000b420ef00be20ef00bc20ef008000200022
:1033b00080058800f0f0200090058800c0e721001b
:1033c00043020700b1e0a80050002800a0058800d3
:1033d000b620ef00bc20ef00be20ef006000b80078
:1033e00040998800519988000000eb0020998800de
:1033f0009005800040800a00000000008040e80046
:103400002032210011409800000000000080fa00e6
:10341000000006000000fa0000042000800588007b
:10342000b220ef00b420ef00b620ef00bc20ef0088
:10343000be20ef00000000000080fa00000006003f
:103440000a00fa000040eb002047980060998000d5
:1034500080007800e0ff2f0001005000000f78008e
:10346000a102800021079800b080a9000668a90089
:1034700060998000719980004008de000100200002
:1034800000007800a00288002300370060998000c7
:103490001000ba003007980062998000739980008c
:1034a000100020000100200002004000838048003e
:1034b0006099880071998800609980001080ba0036
:1034c00040079800629980007399800010002000e6
:1034d00001002000020040008380480060998800bd
:1034e00071998800be009000c1058800ce00900050
:1034f000d10588004299800053998000d0ff2f00a9
:10350000f1ff2f00020040008380480040998800ae
:10351000519988001e8fe900800580004700de0079
:10352000614060000004e00008003a00409980001b
:1035300051998000e00f5000e08f580003003200e6
:103540001e0078000000e000d0ff3a00ae009000be
:10355000a1028800b080a8004099800051998000a5
:10356000e00f5000e08f580002003a0010c0b30096
:10357000204798002e4090000080fa0000000600ce
:103580000200fa000040eb00004f78008005800048
:103590004700de00614060000004e00003003200ec
:1035a0000040eb00004f7800640037000668a90077
:1035b0002032210010407800e84f50001b003e00f0
:1035c0000f00370061998000800b20009140780047
:1035d00001487800609980000000e8006099880048
:1035e0004299800053998000f0ff2f00f1ff2f00d7
:1035f000020040008380480040998800519988006b
:10360000800580004700de00614060000004e000ab
:1036100042003a004099800051998000e00f50002c
:10362000e08f5800e7ff3a003c00370020322100cd
:1036300010407800f04f50002e003e000e00370082
:103640006099800010007800c005880060998000b3
:103650000080e800609988004299800053998000ba
:10366000e0ff2f00f1ff2f000200400083804800a0
:103670004099880051998800800580004700de004d
:10368000614060000004e00024003a00409980009e
:1036900051998000e00f5000e08f5800e8ff3a0099
:1036a0001e0037006099800010007800c005880077
:1036b000609980000080e80060998800609980002f
:1036c00010007800d0058800609980000080e80034
:1036d000609988004299800053998000c0ff2f00b4
:1036e000f1ff2f00020040008380480040998800cd
:1036f00051998800800580004700de00614060002d
:103700000004e00005003a004099800051998000d3
:10371000e00f5000e08f5800e2ff3a00b080a800b0
:103720004099800051998000e00f5000e08f5800d0
:1037300002003a0010c0b300004f78001e4078002d
:103740000080fa00000006000200fa000040eb00d2
:10375000004f7800304080004300de006140600090
:103760000004e00021003200b080a9000668a90032
:1037700020322100104090000040e9007f406000ae
:103780000080fb007f0060004800dd0092058000a3
:10379000f10f2e008100610001007000900588008b
:1037a0002032210010409000e84f500004003e00fd
:1037b000800b20008040eb000148780008003700b3
:1037c0002032210010409000f04f500002003e00d7
:1037d000b820ef0002003700b820ef00ba20ef0059
:1037e000b080a80010c0b300004f78001e407800e1
:1037f0000080fa00000006000200fa000040eb0022
:10380000004f7800304080004300de0061406000df
:103810000004e00010003200203221001040780047
:103820000040e9007f4060000080fb007f006000f6
:103830004800dd0092058000f10f2e00810061003c
:103840000100700090058800b080a9000668a900fa
:1038500010c0b300004f78001e4078000080fa00ce
:10386000000006001000fa00600798007107980039
:103870006e029000fe0290004407980055079800e1
:103880001000200001002000008fbe002032210027
:10389000104090000080fb000003e9001e02be0003
:1038a000f003130004003b008703ea008720dd00db
:1038b0000000eb00040037008723de000620dd0057
:1038c0008628dd0081807300008fbe006000b80094
:1038d000200798003107980018003700ce009000ac
:1038e0005e00900061816000e0016000e00f510027
:1038f000e08f5900070032002e029000be029000b7
:103900001e00be0000007200818072002007980037
:10391000310798001e00be008100d1000080d30056
:10392000008fbe004e009000de0090008100d100ac
:103930000080d30040079800510798004e00900087
:10394000de009000e00f5000e08f5800e3ff3a00e7
:103950002e009000be0090000080fa0000000600db
:103960000800fa006000b800008fbe006000b800d8
:1039700020079800310798000f0037001e00be0096
:103980000000400081804800008fbe001e00be0085
:103990000000a000008fbe0064014700100020005e
:1039a0000100200032024000a28248000400be0054
:1039b0002007980031079800203221001040900025
:1039c0000080fb008000eb002e019000be01900003
:1039d000800f5100818f5900e8ff39001e007800e8
:1039e0009e0090000080fa00000006000a00fa0025
:1039f00010079800210798003207980043079800a5
:103a0000800580004300de0061406000004f7800c8
:103a100090058000c8800a00000000001047980050
:103a20003e009000e10f500009003a001e00900097
:103a3000e00588001e009000ae0090004008de0007
:103a40000100200000007800f00588004b003700de
:103a50009005800040800a00000000000080fb000c
:103a60007f0060004800dd0092058000f10f2e000d
:103a70008100610001007000900588004e009000f8
:103a800000407800614060000080fb006100600041
:103a90004300dd00810580000130a10001007000bd
:103aa000800588002032210010409000e84f50002f
:103ab00005003e00800b20009e00900081407800b1
:103ac000014878000f00370020322100104090009c
:103ad000f04f500003003e001e009000c00588001b
:103ae000080037001e009000c00588001e009000ee
:103af000ae0090004008de000100200000007800c9
:103b0000d00588000668a900b080a8003040800079
:103b10004300de0061406000e14f500001003200d0
:103b2000faff370000000000b080a9001e407800b6
:103b3000614060000080fb00610060004300dd0028
:103b4000810580000130a10001007000800588001f
:103b50000668a9001e4090007f4060000080fb00c6
:103b60007f0060004800dd0092058000f10f2e000c
:103b700081006100010070009005880000000000d5
:103b80000080fa00000006000600fa00000f78002e
:103b9000120798002307980090058000c8800a004b
:103ba000000000008040e800203221000148780039
:103bb0009005800040800a00000000008040e8007e
:103bc00020322100114098001e019000ae019000ab
:103bd00042998800539988009e0178006399880073
:103be0000000eb0020998800203221008040eb008b
:103bf00041409800b080a800000000000080fa005a
:103c0000000006000800fa00008fbe00220798009e
:103c10003307980090058000c8800a00000000006b
:103c20008040e800203221000148780090058000a3
:103c300040800a00000000008040e800203221009f
:103c4000114098002e019000be019000429988001a
:103c5000539988009e0078001e00900061826000e9
:103c6000e0026000e00f5200e08f5a0004003a00ca
:103c70001e01be0062998800739988000700370012
:103c8000f0ff2f00f1ff2f003e014000ae81480001
:103c90000200be0060998800719988000000eb0066
:103ca000209988002032210011c0b30041409800c3
:103cb00090058000c8400a00001f000090058800a1
:103cc000b080a800000000000080fa00000006009c
:103cd0000200fa00000f78001e0078000000e000eb
:103ce000020032009e007800f1838800000000008e
:103cf0000080fa00000006000000fa00000000004a
:103d00000080fa00000006000000fa002099800000
:103d10006300680000f0a7000000ea000000e9006e
:103d20004f00de00004078000080fa00000006002e
:103d30000400fa002032210010409000e84f5000ab
:103d400009003e00e00580008000eb008001780063
:103d5000f20f20000281610060806000020f780095
:103d60001007980015003700203221001040900005
:103d7000f04f500004003e00e00580008000eb00a2
:103d8000008fbe000d003700f00580008000eb00c2
:103d9000008fbe001e00be00c000dd00000020003d
:103da000008fbe00e00580008000eb001e01be0019
:103db0000000710081807100008fbe001e0078003d
:103dc0009e0090000080fa00000006000400fa0047
:103dd000d7ff0700008fbe001e00be00a1fe070037
:103de0000080fa00000006000800fa002007980092
:103df00031079800ceff0700008fbe001e01be00f5
:103e00002e009000be0090000000690081806900d3
:103e1000008fbe00d2fe070000017800010078008c
:103e20009e0178009e009000030161008100600007
:103e3000020078000080fa00000006000a00fa0084
:103e4000404798003207980043079800b8ff0700e2
:103e5000008fbe004e4090000004e00003003200de
:103e6000daff0700008fbe0002003700b0ff070036
:103e7000008fbe001e01be003e009000ce009000ec
:103e80000000690081806900008fbe00b4fe070059
:103e900000017800010078009e0178009e009000eb
:103ea0000301610081006000020078000080fa00d8
:103eb000000006000000fa0020998000e10f500089
:103ec000170032000000e00005003200e20f500051
:103ed00019003200e30f5000200032001c003700b0
:103ee00020322100404090000004e0000600320033
:103ef00053fd07000004e0001a003200100020000b
:103f000020998800170037009dfd07000004e0009d
:103f100014003200100020002099880011003700a2
:103f200009fe07000004e00010003200200020001d
:103f3000209988000d0037002ffe07000004e000e4
:103f40000c00320030002000209988000900370062
:103f5000b020ef00b220ef000700370000000000a3
:103f600005003700000000000300370000000000db
:103f70000100370000000000304080004300de00f8
:103f8000614060000004e00005003200f083800022
:103f90000000e00002003200f08380000000010019
:103fa000000000000080fa00000006000000fa0097
:103fb0002188a9002168a90037a8a9003822ef00ac
:103fc00000802000d011880000082000e011880047
:103fd000e0022000f0118800403620000012880026
:103fe0004222ef0000312100408088000031210092
:103ff000308088009031210020808800903121009d
:10400000108088000a70ef00003222008201070051
:10401000c03322008e010700803522009a0107007c
:1040200040372200a601070000392200b201070034
:10403000c03a2200be0107003d62a8003dc2a800b0
:104040003d22a8003d02a8003da2a8002168a800ca
:1040500037a8a8002628a80039e2a80038a2a8009e
:104060003882a800000000000080fa00000006006e
:104070000000fa000188a9002188a9000168a900b0
:104080002168a90017a8a90037a8a9000628a90037
:104090002628a9003822ef003a22ef00000820006d
:1040a000e0118800e0022000f01188004022ef00bb
:1040b0004222ef00000000000080fa00000006002d
:1040c0000200fa000040eb00004f780021808000e1
:1040d00010808000808f50000b0032002080800014
:1040e000104f7800208080000000e80020808800c9
:1040f0002180800020322100808f500002003a0091
:1041000090312100208088001e4078000080fa0055
:10411000000006000200fa00004f780000000000d6
:104120001e000700614068000004e000fcff3a0048
:10413000308080001e487800308080000000e80059
:10414000308088003180800090312100808f5000c5
:1041500002003a0000312100308088002188a80048
:104160008470ef00000000000080fa0000000600ec
:104170000000fa002180800010808000008068002c
:1041800000f0a7000000ea000000ea004f00de0097
:10419000004078000080fa00000006000400fa00e9
:1041a0004180800011079800308080009e009000c0
:1041b000808f5000060036009e0090003080800006
:1041c000008050000000e900000f78000400370074
:1041d0009e0090003080800000805000680f4000fa
:1041e0001e00780000f0a7000000ea000000ea00ce
:1041f0004f00de00004078000080fa00000006005a
:104200000200fa000040eb00004f7800318080008f
:1042100040808000808f500011003a00e011800043
:104220004700de00614060000004e000070032004b
:10423000f01180004500de00614060000004e000f5
:104240000200320010002000010037000000eb00e7
:10425000004f78001e40780061406000004f7800f9
:104260001e4078000080fa00000006000000fa00fe
:1042700038a2a800000000000080fa00000006003c
:104280000000fa0038a2a900000000000080fa0037
:10429000000006000200fa00004f78005cc2a9008e
:1042a0001e407800614060004200dd00c125200012
:1042b000914078000124a10000c070005ce2b700ca
:1042c0001e80fb00610060004600dd00c11180001f
:1042d0000160a10001007000c01188000000000012
:1042e0000080fa00000006000000fa00c011800003
:1042f0004600de00614060000080fb0000f0a70087
:104300000000ea000000ea004f00de0000407800f4
:104310000080fa00000006000000fa00e0128000b1
:104320004200de00614060000080fb0000f0a7005a
:104330000000ea000000ea004f00de0000407800c4
:104340000080fa00000006000400fa00008fbe00a2
:104350001e007800001288001e00be004008de002b
:1043600001002000000078006f006000101288003b
:10437000000000000080fa00000006000400fa00bf
:10438000101280008000eb00008fbe001e00be00f7
:10439000c001dd0002002000001280008000eb0060
:1043a0000000710081807100008fbe001e00780047
:1043b0009e0090000080fa00000006000800fa004d
:1043c00020079800310798002e019000be01900050
:1043d000e005200001002000800f5100818f59006e
:1043e0000e0036002e009000be009000e00f50003e
:1043f000e08f5800090032003b62a80038e2a900b3
:104400002e019000be01900000102e00515f200090
:10441000caf20700008fbe00300037002e01900066
:10442000be0190007001200001002000800f5100ab
:10443000818f5900150036003b62a90038e2a800c0
:104440002e019000be0190004218dd00ce10de006b
:10445000810070004210dd000001be0000102e003f
:10446000515f2000b5f207000002780001007800db
:104470000401780080017800f0ff2f00f1ff2f0089
:10448000001f410001974900140037003b62a9005a
:1044900038e2a9002e019000be0190004418dd0012
:1044a000cc10de00810070004410dd000001be0071
:1044b00000102e00515f2000a0f2070000027800db
:1044c000010078000401780080017800f0ff2f00df
:1044d000f1ff2f00001f4100019749001e007800e6
:1044e000001288001e00be004008de00010020000f
:1044f000000078006f0060001012880000000000cb
:104500000080fa00000006000800fa009bff070088
:104510002007980031079800d01180004b00de0082
:1045200061406000e14f50000c003a002e00900006
:10453000be009000e00f5000e08f580007003200ee
:104540002e019000be01900000102e00515f20004f
:104550007af20700008fbe0024003700c0118000ef
:104560004700de0061406000e14f500010003a005b
:1045700064014700100020000100200032024000ca
:10458000a28248000401be004218dd00ce10de0009
:10459000810070004210dd000001be0000102e00fe
:1045a000515f200065f20700008fbe000f0037004a
:1045b000640147001000200001002000320240008a
:1045c000a28248000401be004418dd00cc10de00c9
:1045d000810070004410dd000001be0000102e00bc
:1045e000515f200055f20700008fbe001e007800ca
:1045f0009e0090000080fa00000006000200fa0011
:1046000001002100110f78000030ef001e0078003b
:104610000080fa00000006000200fa00000f780097
:104620001e0078000000e000020032009e007800ca
:1046300061808800000000000080fa000000060091
:104640000000fa00000000000080fa0000000600f0
:104650000200fa00000f78001e0078000000e00061
:10466000020032009e007800718088000000000087
:104670000080fa00000006000000fa0000000000c0
:104680000080fa00000006000200fa00000f780027
:104690001e0078000000e000020032009e0078005a
:1046a00081808800000000000080fa000000060001
:1046b0000000fa00000000000080fa000000060080
:1046c0000200fa00000f78001e0078000000e000f1
:1046d000020032009e0078009180880000000000f7
:1046e0000080fa00000006000000fa000000000050
:1046f0000080fa00000006000200fa00000f7800b7
:104700001e0078000000e000020032009e007800e9
:10471000a1808800000000000080fa000000060070
:104720000000fa00000000000080fa00000006000f
:104730000200fa00000f78001e0078000000e00080
:10474000020032009e007800b18088000000000066
:104750000080fa00000006000000fa0000000000df
:104760000080fa00000006000000fa00f0828000dd
:1047700060858800060107007085880088010700b1
:1047800080858800108380008000e8001183880005
:1047900090858800908380008000e90091838800e4
:1047a000a085880052002000c10e2100c00a21000f
:1047b000e102070060838000c10e210051009800d3
:1047c000000000000080fa00000006000600fa0069
:1047d00010079800210798001e019000c1122100c7
:1047e0002e00900000030700c1122100110f780075
:1047f0001e007800e20f5000280032001e007800f2
:10480000e20f500007003e001e0078000000e000ac
:104810000c0032001e007800e10f5000140032003e
:104820005800370000f02f009e007800808f500065
:104830002d0032001e007800e10f400047003200da
:104840005000370070898000e10f500002003a00ec
:1048500010c0b300a8010700708980000000e000cc
:1048600041003a0010c0b300c80107003e00370005
:1048700070898000e10f500002003a0020c0b300b0
:104880009d010700708980000000e00038003a00b8
:1048900020c0b300bd0107003500370070898000db
:1048a000e10f500006003a0020c0b300920107005b
:1048b00010c0b300900107000040eb008e0107001c
:1048c000708980000000e0002b003a0020c0b30097
:1048d000ae01070010c0b300ac0107000040eb00c0
:1048e000aa0107002400370070898000e20f500001
:1048f0000b003200e30f500010003200e10f5000b7
:104900001f003a0020c0b3000402070010c0b3002b
:10491000020207000040eb00000207000e00370013
:1049200020c0b300ef01070010c0b300ed01070085
:104930000040eb00eb0107000700370020c0b30088
:104940000402070010c0b300020207000040eb00a1
:104950000002070000000000090037007089800095
:10496000f0828800070037000000000005003700d3
:1049700000000000030037000000000001003700c5
:1049800000000000000000000080fa0000000600a7
:104990000000fa0062838000502020000100200007
:1049a0001001980021019800608380008000eb00d6
:1049b00031009800608380001100200041009800c1
:1049c000608380000104200001087800708380006b
:1049d000110020004100980070838000613e220099
:1049e0003100980082838000000021000100200037
:1049f00010019800210198008083800011002000a0
:104a00003100980080838000110020004100980050
:104a100080838000010420000108780072838000f8
:104a20008183800060838000be02070000000000d8
:104a30000080fa00000006000000fa007083800089
:104a4000400090000000e0000f003a0070838000fa
:104a5000f1020700708380003001900070838000b5
:104a6000d0009000708380001000780002000100e8
:104a70007183800060838000d10090005100980015
:104a800070838000c1020700c2828000d382800050
:104a90001000200001002000020040008380480038
:104aa000c0828800d1828800c2828000d3828000c8
:104ab0002000200001002000800f5100818f59004c
:104ac0000500360028ff070060838000bb02070056
:104ad0005830ef005a30ef00000000000080fa006c
:104ae000000006000000fa008083800010019000a2
:104af000a00190000000210001002000800f510063
:104b0000818f59000d003a00808380006189280060
:104b10005100980080838000a802070082838000f3
:104b20006020200001002000100198002101980061
:104b300010c0b3005cf0b700130037008083800022
:104b400010019000a00190006020200001002000d2
:104b5000800f5100818f590006003a005cd0bf00e1
:104b60000004e00002003200808380007f02070022
:104b70005c70ef0080838000718d280051009800e8
:104b8000808380008d0207000080fa00000006008c
:104b90000000fa00007180004900de006140600002
:104ba0000080fb004f00dd0080007800e071800095
:104bb0004800de00614060000080fb004e00dd0028
:104bc0000001780000002400000061000100700076
:104bd000e1718000ca08de00e1c060008180fb0056
:104be000cd08dd0001017800010022008100610094
:104bf00000807000c1728000ce08de00e1c060005d
:104c00008180fb00cc08dd0001017800010021005b
:104c10008100610000807000e1718000cb08de003f
:104c2000e1c060008180fb00cb08dd00010178005d
:104c3000018020008100610000807000c17280004e
:104c4000c908de00e1c060008180fb00ca08dd0009
:104c500001017800014020008100610000807000a7
:104c6000e1718000ce08de00e1c060008180fb00c1
:104c7000c908dd00010178000120200081006100e9
:104c800000807000e1718000c908de00e1c06000b2
:104c90008180fb00c808dd000101780001102000c0
:104ca0008100610000807000e1718000cf08de00ab
:104cb000814078008180fb00c708dd000101780099
:104cc000010820008100610000807000c172800036
:104cd000c508de00e1c060008180fb00c608dd0081
:104ce0000101780001042000810061000080700053
:104cf000e1718000c408de00e1c060008180fb003b
:104d0000c508dd000101780001022000810061007a
:104d100000807000c1728000c608de00e1c0600043
:104d20008180fb00c408dd00f0806000008070001e
:104d300001718000ca08de00e1c060008180fb00d4
:104d4000c308dd00e880600000807000e171800031
:104d5000c508de00e1c060008180fb00c208dd0004
:104d6000e48060000080700001718000cd08de00ea
:104d7000e1c060008180fb0081804000e280600033
:104d800080807000007180004b00de006140600098
:104d90000080fb00010070000080fa0000000600a7
:104da0000000fa00007180004c00de0061406000ed
:104db0000080fb00c900dd00002020008080600032
:104dc000c07280000000d100614060000080fb00e4
:104dd0004801dd00001020000000610001007000ab
:104de000c172800081407800e1c060008180fb00da
:104df0004709dd000108200081006100008070008b
:104e000001718000ce08de00e1c060008180fb00ff
:104e10004609dd000104200081006100008070006f
:104e2000e1718000cc08de00e1c060008180fb0001
:104e30004509dd0001022000810061000080700052
:104e400001718000cf08de00814078008180fb0086
:104e5000c408dd00f080600000807000e171800017
:104e6000cd08de00e1c060008180fb00c308dd00ea
:104e7000e880600000807000c1728000c808de0019
:104e8000e1c060008180fb00c208dd00e4806000ba
:104e900000807000c1728000cd08de00e1c06000bb
:104ea0008180fb0081804000e28060000080700013
:104eb000c1728000cf08de00814078008180fb0055
:104ec000e1806000008070000080fa0000000600b1
:104ed0000000fa000040eb008200070020c0b30091
:104ee0008000070010c0b3007e0007000000000033
:104ef0000080fa00000006000200fa00004f78006f
:104f00001e407800e24f50001b003e001e80fb0058
:104f1000013321000080400010407800e14f500034
:104f2000170032001e80fb0001332100008040008a
:104f300011c0b300014878001e80fb00e10f500053
:104f400006003200e20f5000060032000000e000d0
:104f500006003a005beea8000a0037005b0ea800ce
:104f6000080037005baea800060037000000000014
:104f700000000000030037000000000001003700bf
:104f8000000000000080fa00000006000200fa00a5
:104f9000004f78001e407800e24f50001b003e009a
:104fa0001e80fb000133210000804000104078008b
:104fb0000004e000170032001e80fb0001332100d6
:104fc000008040008040eb00014878001e80fb001c
:104fd000e10f500006003200e20f500006003200e0
:104fe0000000e00006003a005beea9000a0037006e
:104ff0005b0ea900080037005baea9000600370071
:105000000000000000000000030037000000000066
:1050100001003700000000000080fa0000000600d8
:105020000200fa00004f78001e80fb00e10f5000e4
:105030000f003200e20f5000190032000000e000c3
:1050400023003a00d07280004f00de00004078005c
:10505000614068000080fb004f00dd00d1728000dd
:1050600001f0a10001007000d07288001a00370022
:10507000d07280004800de0061406000614068003e
:105080000080fb00610060004800dd00d1728000fc
:105090000180a10001007000d07288000e0037006e
:1050a000d07280004d00de00614060006140680009
:1050b0000080fb00610060004d00dd00d1728000c7
:1050c00001d0a10001007000d072880002003700fa
:1050d0000000000000000000000000000080fa0056
:1050e000000006000200fa00004f78001e40780021
:1050f000e24f500006003e001e80fb0001332100fd
:105100000080400021c0b300014878000100370052
:10511000000000000080fa00000006000200fa0013
:10512000004f78001e407800e24f500006003e001d
:105130001e80fb00013321000080400031c0b3001d
:105140000148780001003700000000000080fa00ec
:10515000000006000200fa00004f78001e407800b0
:10516000e24f500006003e001e80fb00013321008c
:105170000080400041c0b3000148780001003700c2
:10518000000000000080fa00000006000200fa00a3
:105190000040eb00004f78000040eb001047980003
:1051a0000040eb00004f78005d0037001e80fb00e0
:1051b000013321000080400010407800e14f500092
:1051c000530036001e80fb000133210000804000a8
:1051d00010407800e34f500003003a00a0c0b30035
:1051e000104798000b0037001e80fb0001332100a0
:1051f0000080400010407800e44f500003003a0067
:1052000020c0b300104798000200370050c0b30020
:10521000104798001e80fb00313321008080400041
:10522000914078000141e800313321008080400046
:10523000824878003133210000804000104078001f
:105240009e40900080cf500031003e001e80fb0049
:1052500031332100008040008040eb00014878009d
:105260001e80fb00e10f50000f003200e20f5000e3
:10527000190032000000e00023003a00d0728000e4
:105280004f00de0000407800614068000080fb00b5
:105290004f00dd00d172800001f0a100010070001c
:1052a000d07288001b003700d07280004800de00fa
:1052b00061406000614068000080fb0061006000a8
:1052c0004800dd00d17280000180a1000100700063
:1052d000d07288000f003700d07280004d00de00d1
:1052e00061406000614068000080fb006100600078
:1052f0004d00dd00d172800001d0a10001007000de
:10530000d072880003003700000000000100370061
:10531000000000001e4078000040e800004f7800c8
:105320001e407800e24f5000a0ff36000000000051
:105330000080fa00000006000a00fa00200798002a
:1053400031079800420798000000eb00000f78003a
:105350000000eb00100798001b0037001e009000b3
:1053600000004000e40047001100400010007800f9
:10537000c800de0066004700100178001e004100f2
:1053800081407800014878001e0090000000400035
:10539000e400470011004000100178001e00e80002
:1053a000e600470011004000824078000148780084
:1053b0001e8fe8000e80e8008e80e8001108e800eb
:1053c00090007800110798004e0090000000400007
:1053d0009e007800808f5000e0ff39000000000040
:1053e0000080fa00000006000e00fa004007980056
:1053f00051079800620798006e0090000040780006
:1054000061406000604798006e4090000004e0003a
:10541000040032006e0090000000a100000f780030
:1054200003003700c10020008e804000110f78007b
:105430000000eb00100798000000eb002007980028
:105440001e003700e80047000e80e80011017800d8
